:020000040800F2
:10000000000002209D050008ED050008ED05000830
:10001000ED050008ED050008ED05000800000000F2
:10002000000000000000000000000000ED050008D6
:10003000ED05000800000000ED050008ED050008D2
:10004000ED050008ED050008ED050008ED050008C8
:10005000ED050008ED050008ED050008ED050008B8
:10006000ED050008ED050008ED050008ED050008A8
:10007000ED050008ED050008ED050008ED05000898
:10008000ED050008ED050008ED0500080000000082
:10009000000000000000000000000000ED05000866
:1000A000ED050008ED050008ED050008ED05000868
:1000B000ED050008ED050008ED050008ED05000858
:1000C000ED050008ED050008ED050008ED05000848
:1000D000ED050008ED050008ED0500080000000032
:1000E000ED050008ED050008ED0500080000000022
:1000F000000000000000000000000000ED05000806
:1001000000000000ED050008ED050008ED05000801
:1001100000000000000000000000000000000000DF
:10012000ED050008ED050008ED050008ED050008E7
:10013000ED050008000000000000000000000000C5
:10014000000000000000000000000000ED050008B5
:10015000ED050008ED050008ED050008ED050008B7
:10016000ED050008ED05000800000000000000009B
:10017000000000000000000000000000000000007F
:1001800000000000ED050008000000000000000075
:08019000ED050008ED05000873
:1001980010B5054C237833B9044B13B10448AFF3B9
:1001A80000800123237010BD0C0000200000000017
:1001B8003806000808B5034B1BB103490348AFF3E1
:1001C800008008BD0000000010000020380600086C
:1001D80000B587B0002100910A4B1A6B42F001026A
:1001E8001A631B6B03F001030093009B2023019308
:1001F80001230293039101A9034800F0EFF807B027
:100208005DF804FB003802400000024010B500F021
:100218006FF8FFF7DDFF0C4C2021204600F0B0F905
:100228002021204600F0ACF92021204600F0A8F952
:1002380007E00133054A9342FBDD2021024800F024
:100248009FF90023F6E700BF000002409F860100E7
:1002580008B5032000F066F80B4A536A43F4E0231C
:100268005362002211466FF00B0000F06DF8002277
:1002780011466FF00A0000F067F8002211466FF08F
:10028800090000F061F808BD00ED00E0054BD3F867
:10029800882042F47002C3F888204FF000629A6008
:1002A800704700BF00ED00E010B504460E4B18780B
:1002B8004FF47A73B3FBF0F30C4A1068B0FBF3F019
:1002C80000F076F868B90F2C01D901200AE0002265
:1002D80021464FF0FF3000F037F8034B5C600020F8
:1002E80000E0012010BD00BF040000200000002035
:1002F80008B50B4B1A6842F400721A601A6842F487
:1003080080621A601A6842F480721A60032000F052
:1003180009F80020FFF7C8FFFFF79AFF002008BD83
:10032800003C0240074AD36823F4E0631B041B0C1B
:10033800000200F4E060184340F0BF6040F4003071
:10034800D060704700ED00E030B4174BDB68C3F3B2
:100358000223C3F10704042C28BF04241D1D062D05
:1003680018D9033B4FF0FF3505FA04F421EA0401DC
:10037800994005FA03F322EA0303194300280BDB2B
:100388000901C9B200F1604000F5614080F800132E
:1003980030BC70470023E5E700F00F000901C9B23F
:1003A800024B1954F4E700BF00ED00E014ED00E043
:1003B8000138B0F1807F0AD2064B5860064AF02116
:1003C80082F823100020986007221A6070470120E5
:1003D800704700BF10E000E000ED00E000230F2BA5
:1003E80000F2C580F0B583B039E0042200E00022B5
:1003F800AA403A4302345E4D45F824205D4A146809
:10040800F24302EA04054F6817F4803F01D046EA38
:100418000405584C2560646802EA04054F6817F41F
:10042800003F01D046EA0405524C6560A46802EA20
:1004380004054F6817F4801F01D046EA04054D4CA7
:10044800A560E46822404D6815F4001F01D046EA13
:100458000402484CE26001330F2B00F2868001222F
:100468009A400C6804EA0206B242F4D14C68651E50
:10047800012D03D9112C01D0122C12D185685F00EF
:100488000324BC4025EA0405CC68BC402C438460A6
:10049800456825EA02054C68C4F300129A402A43CD
:1004A8004260C4685F000322BA40D24314408D689A
:1004B800BD402543C5604C68022C01D0122C13D1D5
:1004C800DD08083550F825E003F007044FEA840CEE
:1004D8000F2404FA0CF42EEA040E0C6904FA0CF446
:1004E80044EA0E0440F82540046822404C6804F0B1
:1004F8000304BC40224302604A6812F0805FAAD01D
:10050800002201921C4A546C44F480445464526C96
:1005180002F480420192019A9C08A51C144A52F8E0
:10052800257003F0030295000F22AA4027EA02076C
:10053800124A90423FF45BAF02F5806290420ED0BF
:1005480002F5806290420CD002F5806290420AD097
:1005580002F5806290423FF448AF072248E7012243
:1005680046E7022244E7032242E703B0F0BD7047A2
:1005780000380140003C01400038024000000240C1
:10058800436931EA030301D081617047090481613D
:1005980070470000DFF834D0002103E00C4B5B58B3
:1005A800435004310B480C4B42189A42F6D30B4A7D
:1005B80002E0002342F8043B094B9A42F9D3FFF7C3
:1005C80065FE00F011F8FFF721FE704700000220D9
:1005D80058060008000000200C0000200C00002035
:1005E80028000020FEE7000070B50D4E0D4CA41B3E
:1005F800A4100025A54209D10B4E0C4C00F018F8A8
:10060800A41BA4100025A54205D170BD56F82530BD
:1006180098470135EEE756F8253098470135F2E757
:100628005006000850060008500600085406000846
:10063800F8B500BFF8BC08BC9E467047F8B500BFC7
:08064800F8BC08BC9E46704797
:04065000BD010008E0
:040654009901000800
:0C0658000024F40001000000100000006D
:040000050800059D4D
:00000001FF
